:060000000200110207F2EC
:03000B00020E3FA3
:08006A00C200C201C202C2047F
:0300740002000E79
:03000E0002088065
:20007700121274900000E4F5F0120C63020F5DAF83E58290E3E0F0EFA3F090E3E0E0FEA357
:20009700E08E04C423CCC423541F6CCC541FCC6CCCFD53060790E3DDE0FAA3E0FBA3E0FF94
:2000B700EC2AFAED3BFB8A828B838FF01218BFFA8EF005F0EA8002C313D5F0FB5401FF3081
:2000D700032990E411740EF074E2A3F090E413741EF0E4A3F090F000E4F5F01210F9EF2406
:2000F700FF920DD20E90E20E0213BE7E00BE0E00500FEE240EF582E434E2F583E4F00E8004
:20011700ECEF24FF920DC20E90E20E0213BEE58290E3E6F0E0FFBF4102802ABF42028053F7
:20013700BF43030201B6BF45030201E4BF46030201FCBF4703020222BF4803020240BFAB0E
:200157000302025E2290E3E3E0FDA3E0FEA3E0FF74012DFAE43EFB8F048D828E838FF012CE
:2001770018BF540124FF920DC20E8A828B838CF00213BE90E3E3E0FDA3E0FEA3E090E3E2B5
:20019700E0FF7C0090E407EDF0EEA3F090E409EFF0ECA3F0D20890F000E4F5F0021026904E
:2001B700E3E3E0FDA3E0FEA3E0FF74012DFAE43EFB8F048D828E838FF01218BF540124FF36
:2001D700920DC20E8A828B838CF00213BE90E3E3E0FDA3E0FEA3E0FFC20DD20E8D828E832B
:2001F7008FF00213BE90E411740EF074E2A3F090E413741EF0E4A3F090F000E4F5F01210CB
:20021700F9C20DD20E90E20E0213BE90E3E3E0FDA3E0FEA3E0FF90E3DDEDF0EEA3F0EFA356
:20023700F0C20390000002008690E3E3E0FDA3E0FEA3E0FF90E3DDEDF0EEA3F0EFA3F0D2A2
:200257000390000002008690E3E3E0FDA3E0FEA3E0FF8D828E838FF01218BF90E43CF0E42A
:20027700A3F0A3F0A3F09008D575F002E4121853AC82AD83AEF0FF90E466ECF0EDA3F0EE5A
:20029700A3F0EFA3F02243B720759B00759A8A759812D2A822E58290E3EEF090E2D674CA54
:2002B700F090E3E9E0FF90E2D7F08F067F008E048F0574CA2CFCE43DFD90E3EAE0FB90E25B
:2002D700D8F08B017A008C088D0989008A05E82508F8ED3509FD88088D0990E3EEE0FC90CF
:2002F700E2D9F08C0A8F0BAD0BEC2508FCED3509FD90E3EFECF0EDA3F090E3EBE0F50CA377
:20031700E0F50DA3E0F50E8F0AC3E50A9B505EC001C002A90A7A00740429F9E43AFAE9245B
:20033700D6F508EA34E2F509E50A250CF9E4350DFAAD0E89828A838DF01218BF85088285CF
:200357000983F089828A838DF01218BFF97D0090E3EFE0FAA3E0FCE92AFAED3CFC90E3EFC7
:20037700EAF0ECA3F0050AD002D001809C740429FCE43AFDEEC399FBEF9AFA78007900C30B
:20039700E89BE964808AF063F08095F05021C003C002E82CFAE93DFBEA24D6F582EB34E2A3
:2003B700F583E4F008B8000109D002D00380D074042EFCE43FFDEC24D6FCED34E2FD90E304
:2003D700E7E0FAA3E0FB8C828D83F08B047D0090E3EFE0F8A3E0F990E3EFEC28F0ED39A3C8
:2003F700F074052EFCE43FFDEC24D6F582ED34E2F5838A05EDF07B0090E3EFE0FCA3E0FDB6
:20041700EA2CFAEB3DFB90E3EFEAF0EBA3F074062EFCE43FFDEC24D6FCED34E2FD90E3EFD0
:20043700E0FAA3E08C828D83F074072EFEE43FFFEE24D6F582EF34E2F583EAF090E460EEF9
:20045700F0EFA3F090E45E7401F0E4A3F090E2D6E0F582120470D20222E58290E3F1F0206F
:2004770004FD90E3F1E0F599D20422E58290E3F2F090E448E0FEA3E0FFC374089EE49F5012
:200497000122EE240A83F582EE240D83F583E473B9F044C216C41978A904040505060607B3
:2004B700070790E3F2E0FFBFCA02800122A200E4337F0025E0FEEF33FFEE244AF582EF3453
:2004D700E4F58374CAF0E4A3F043AD4090E448E02401F0A3E03400F022A200E4337F0025FD
:2004F700E0FEEF33FFEE2440FCEF34E4FD90E3F2E0FBF97A008C828D83E9F0EAA3F0EE245B
:200517004AFEEF34E4FF8E828F83E0FCA3E0FD7A00EB2CFCEA3DFD8E828F83ECF0EDA3F0C9
:2005370090E448E02401F0A3E03400F022A200E4337F0025E0FEEF33FFEE2440F582EF34E2
:20055700E4F583E0FCA3E0FD90E3F2E0FBF97A00C3EC99ED9A404CEE2444F582EF34E4F5F5
:2005770083E9F0EAA3F0EE2452F582EF34E4F583E4F0A3F0EE244AFEEF34E4FF8E828F8348
:20059700E0FCA3E0FD7A00EB2CFCEA3DFD8E828F83ECF0EDA3F090E448E02401F0A3E03451
:2005B70000F02290E448E4F0A3F022A200E4337F0025E0FEEF33FFEE2456FCEF34E4FD9079
:2005D700E3F2E0FBF97A008C828D83E9F0EAA3F0EE244AFEEF34E4FF8E828F83E0FCA3E08C
:2005F700FD7A00EB2CFCEA3DFD8E828F83ECF0EDA3F090E448E02401F0A3E03400F02290AE
:20061700E43AA200E433F0E4A3F0900107121833AE82AF83EE2400F50FEF34E0F510A2006E
:20063700E4337D0025E0FCED33FDEC2452FAED34E4FB8A828B83E0F8A3E0F9740128FEE4A8
:2006570039FF8A828B83EEF0EFA3F0E8250FF8E93510F990E3F2E0F50F88828983F0EC2437
:200677004AF9ED34E4FA89828A83E0F511A3E0F512751000A80FAB10E82511F8EB3512FB5F
:2006970089828A83E8F0EBA3F0EC2440F582ED34E4F583E0FCA3E0FDC3EE9CEF9D500122E9
:2006B70090E448E02401F0A3E03400F022A200E4337F0025E0FEEF33FFEE245AFCEF34E4DE
:2006D700FD90E3F2E0FB7A008B0178008C828D83E8F0E9A3F0EE244AFEEF34E4FF8E828FD7
:2006F70083E0FCA3E0FDEB2CFCEA3DFD8E828F83ECF0EDA3F090E448E02401F0A3E03400E7
:20071700F022A200E4337F0025E0FEEF33FFEE245AFCEF34E4FD8C828D83E0FAA3E0FB90E2
:20073700E3F2E0F879002AFAE93BFB8C828D83EAF0EBA3F0EE244AFEEF34E4FF8E828F8341
:20075700E0FCA3E0FDE82CF8E93DF98E828F83E8F0E9A3F090E448E02401F0A3E03400F02D
:2007770022A200E4337F0025E0FEEF33FFEE244EFEEF34E4FF90E3F2E0FC7D008E828F83A0
:20079700EDF0ECA3F090E448E02401F0A3E03400F022A200E4337F0025E0FEEF33FFEE24FE
:2007B7004EF582EF34E4F583E0FCA3E0FD90E3F2E07A004204EA4205EE244AF582EF34E472
:2007D700F583E0FEA3E0FFECB50608EDB50704B200D20190E448E4F0A3F022C022C0E0C0C2
:2007F700F0C082C083C007C006C005C004C003C002C001C000C0D075D000D290E59830E08D
:20081700095398FE859982120482E59830E13B5398FD30023390E45EE0FEA3E0FF90E4607B
:20083700E0FCA3E0FDC3EC9EED9F401A90E45E74012EF0E43FA3F0EE24D6F582EF34E2F59E
:2008570083E0F5998002C202C204C290D0D0D000D001D002D003D004D005D006D007D083A3
:20087700D082D0F0D0E0D0223275AA0012126A120ED51212A2D2AF90E411740EF074E2A3A2
:20089700F090E4137401F0E4A3F090E000E4F5F01210F990E20EE0FFBFAC02804790E21184
:2008B7007468F090E21274E8F090E21074FCF0C20DC20E90E20F1213BE1216F5E58270F9B3
:2008D70090E20E74ACF090E407740EF074E2A3F090E4097401F0E4A3F0D20890E000E4F51F
:2008F700F01210261216F5E5827041120E71AC82AD83AEF0FF90E462E0F8A3E0F9A3E0FA41
:20091700A3E0FBECC398FCED99FDEE9AFEEF9BFF90E466E0F8A3E0F9A3E0FAA3E0FBC3EC95
:2009370098ED99EE9AEF9B400302007710010280B3120E71AC82AD83AEF0FF90E462ECF030
:20095700EDA3F0EEA3F0EFA3F0A200B39205E4337F0025E0FEEF33FFEE245AF582EF34E46D
:20097700F583E0F516A3E0F517AA16AB17BAFF05BBFF028003020A60EE2456F582EF34E49D
:20099700F583E0F515EE2440F582EF34E4F583E0F513EE2444F582EF34E4F583E0F51490E9
:2009B700E43AA205E433F0E4A3F0900107121833A882A983E82400F8E934E0F97D0090E3A8
:2009D700E7E516F0E517A3F090E3E9E513F090E3EAE514F090E3EBE8F0E9A3F0EDA3F0855E
:2009F70015821202ACA200B39206E4337D0025E0FCED33FDEC2456F582ED34E4F583E0F9B7
:200A1700EC2444F582ED34E4F583E0F51590E43AA206E433F0E4A3F0900107C00112183303
:200A3700A882AC83D001E82400F8EC34E0FC7D0090E3E2E515F090E3E3E8F0ECA3F0EDA37C
:200A5700F089821201250208FBE51645176003020B20EE2440F582EF34E4F583E0FD90E4C7
:200A77003AA205E433F0E4A3F0900107C005121833A982AC83D005E92400F9EC34E0F87C9D
:200A97000090E3E774FEF004A3F090E3E9EDF090E3EAE4F090E3EBE9F0E8A3F0ECA3F075DC
:200AB70082AA1202ACA200B39206E4337D0025E0FCED33FDEC2456F582ED34E4F583E0F961
:200AD700EC2444F582ED34E4F583E0F51690E43AA206E433F0E4A3F0900107C00112183342
:200AF700A882AC83D001E82400F8EC34E0FC7D0090E3E2E516F090E3E3E8F0ECA3F0EDA3BB
:200B1700F089821201250208FBEE2456F582EF34E4F583E0FD1ABAFF011BEE2440F582EFA4
:200B370034E4F583E0FCEE2444F582EF34E4F583E0FF90E43AA205E433F0E4A3F09001079C
:200B5700C007C005C004C003C002121833A982AE83D002D003D004D005D007E92400F9EED7
:200B770034E0F87E0090E3E7EAF0EBA3F090E3E9ECF090E3EAEFF090E3EBE9F0E8A3F0EE0E
:200B9700A3F08D821202ACA200B39206E4337F0025E0FEEF33FFEE2456F582EF34E4F583D7
:200BB700E0FCA3E0FDBC474EBD004BEE245AF582EF34E4F583E0FAA3E0FB90E43AA206E475
:200BD70033F0E4A3F0900107C003C002121833A882A983D002D003E82400F8E934E0F99065
:200BF700E3DDE8F0E9A3F0E4A3F0C2038A828B831200860208FBBC4805BD00028003020882
:200C1700FBEE245AF582EF34E4F583E0FEA3E0FF90E43AA206E433F0E4A3F0900107C007CD
:200C3700C006121833AC82AD83D006D007EC2400FCED34E0FD90E3DDECF0EDA3F0E4A3F042
:0C0C5700D2038E828F831200860208FBFD
:2018DF000000000000000000000000000000000000000000000000000000000000000000E9
:0A18FF00000000000000D508020000
:200C6300AF82AE83ADF0FC90E3F3EFF0EEA3F0EDA3F0ECA3F0A2AF9207C2AF90E3F3E0F51B
:200C8300F0A3E042F0A3E042F0A3E045F0700C90E3F374FFF0A3F0A3F0A3F090DFADE4F051
:200CA30053C17E5388DF90E3F8E5FFF075FF0490DF4874CAF074C5F090E3F3E0FCA3E0FD5E
:200CC300A3E0FEA3E0FFC3E49C74809DE49EE49F40418E02EFC42354E0CAC423CA6ACA5417
:200CE300E0CA6AFBEDC423541F4AFA8C00EDC42354E0C8C423C868C854E0C868F990E3F359
:200D0300E8F0E9A3F0EAA3F0EBA3F090E3F77456F08064BCFF0BBDFF08BEFF05BFFF0280ED
:200D23001490E3F374F42CF074013DA3F0E43EA3F0E43FA3F090E3F3E0FCA3E0FDA3E0FEBF
:200D4300A3E0FF90E42D74E8F07403A3F0E4A3F0A3F08C828D838EF0EF12173FAC82AD83BC
:200D6300AEF0FF90E3F3ECF0EDA3F0EEA3F0EFA3F090E3F77416F090E3F3E0FCA3E0FDA3C5
:200D8300E0FEA3E0FFC374FF9C74FF9D740F9EE49F501290DFDB74FFF090DFDAF090DFD9DA
:200DA300740FF0801390DFDBECF090DFDAEDF08E0490DFD9740F5CF00090E3F7E090DFF389
:200DC300F00000000090DFF3E043E080F0000090DFF47444F0000090E3F8E0F5FF758A0002
:150DE300758CFF74FFB58C0280F943C181438820A20792AF2250
:200DF80043B70890E3F9E5FFF075FF0475ED81E0F5FF22C007E58290E3FAF090E3FBE5FF6B
:200E1800F075FF0490E3FAE0F5EE75ECA0E5EC20E5FB90E3FAE5EFF090E3FBE0F5FF90E36A
:070E3800FAE0F582D0072269
:200E3F00C0E0C082C083C007C006C0D075D0005388DF90E3FCE0FEA3E0FF90E3FC74012E71
:200E5F00F0E43FA3F0D0D0D006D007D083D082D0E032C007C006C005C00490E3FCE0FEA3F3
:200E7F00E0FF90E400EEF0EFA3F090E3FFE58CF090E3FEE58AF090E400E0FEA3E0FF90E3B6
:200E9F00FCE0FCA3E0FDEEB504D0EFB505CC90E3FFE0FFB58CC490E3FEE0FCA3E0FDA3E049
:200EBF00FEA3E08C828D838EF0D004D005D006D00722858A822243B70153880F90E3FCE493
:200EDF00F0A3F0F58AF58C758931438810D2A922AF82AE83ADF0FC90E402EFF0EEA3F0ED0B
:200EFF00A3F0ECA3F0120E71AC82AD83AEF0FF90E402E0F518A3E0F519A3E0F51AA3E0F537
:200F1F001B120E71A882A983AAF0FBE8C39CF8E99DF9EA9EFAEB9FFBC3E51898E51999E582
:080F3F001A9AE51B9B50DA220F
:200F470090E406E5FFF075FF0475BA0053BF7F90E406E0F5FF2275FF0475BF8075BA0175C3
:0A0F6700BEFF75BDFF75BCFF80FEE4
:200F7100C007C006C005C004C003C002C001C000C082C083C0F0C0E0E58124F1F8E60846C8
:200F910070057582FF8077E58124FDF8080808E6FB60057582FF8066E58124FDF808088610
:200FB10003E4BB000104FA7F007005BB801C800EE58124FDF808E60303543FFE8011EF60C2
:200FD100057582FF80387E8080057582FF802FE58124FDF88604088605530503E58124F1B3
:200FF100F8E62CFC08E63DFD1CBCFF011D8D04EC0303543FFC60057582FF80028E82E58158
:2010110024FCF581D000D001D002D003D004D005D006D00722C007C006C005C004C003C0D2
:2010310002AF82AE83ADF0FC90E40BEFF0EEA3F0EDA3F0ECA3F090E409E0FEA3E0FF90E473
:201051000BE0FAA3E0FBA3E0FCA3E0FDC006C0078A828B838CF0ED120F71AD821581158120
:20107100BDFF03C38075A2AF9209C2AF90E410E58EF0758E2190E40FE5FFF075FF04300879
:201091000543C738800375C71875DF038DD890E40BE0FAA3E0FBA3E0FCA3E08ADB8B027426
:2010B100035AF5DC8E051D8DDD1EBEFF011F8FDE90E407E0FEA3E0FF8ED98FDA43D708E5BD
:2010D100CF30E3FB53CFB753C7EF90E40FE0F5FF90E410E0F58EA20992AFD3D002D003D0CE
:2010F10004D005D006D00722C007C006C005C004C003C002C001C000AF82AE83ADF0FC9090
:20111100E415EFF0EEA3F0EDA3F0ECA3F090E413E0FEA3E0FF90E415E0FAA3E0FBA3E0FC1F
:20113100A3E0FDC006C0078A828B838CF0ED120F71A98215811581B9FF03C38060A2AF92E4
:201151000AC2AF90E41AE58EF0758E2190E419E5FFF075FF0475C70875DF0389D890E41194
:20117100E0F8A3E0F988DB89DC8AD98B0274035AF5DA8E051D8DDD1EBEFF011F8FDE43D716
:2011910008E5CF30E3FB53CFB753C7EF90E419E0F5FF90E41AE0F58EA20A92AFD3D000D0E0
:2011B10001D002D003D004D005D006D00722C007C006C005C004AF82AE83ADF0FC90E41B60
:2011D100EFF0EEA3F0EDA3F0ECA3F090E41F74FFF090E41BE0FCA3E0FDA3E0FEA3E0FF7447
:2011F10001C0E0E4C0E08C828D838EF0EF120F71AF8215811581BFFF03C38054A2AF920BF9
:20121100C2AF90E421E58EF0758E2190E420E5FFF075FF0443C73875DF038FD875DB00758B
:20123100DC0075DD0075DE0075D91F7E1F7FE48FDA43D708E5CF30E3FB53CFB753C7EF90F0
:19125100E420E0F5FF90E421E0F58EA20B92AFD3D004D005D006D007227B
:20126A0075A80075B700758E012275AD0075AE0075AF0075800075900275A00175BC0075D4
:20128A00BD0075BE0075B98075BA0075BBF975A30075AA0075A68022120F4775AD8775AE26
:2012AA000075AF0075800075900075A00075BC0075BD0075BE0075B97C75BA3B75BBF9D24C
:0B12CA0091D297C29212029D020DF813
:02007200C20CBE
:2012D500C007C006C005C004C003C002C001C000AF82AE83ADF0FC90E422EFF0EEA3F0EDFF
:2012F500A3F0ECA3F0120E71AC82AD83AEF0FF90E422E0F51CA3E0F51DA3E0F51EA3E0F511
:201315001F120E71A882A983AAF0FBE8C39CF8E99DF9EA9EFAEB9FFBC3E8951CE9951DEA77
:20133500951EEB951F500620A0D7D38001C3D000D001D002D003D004D005D006D00722C0C4
:2013550007C006C005C004C003AF82AE83ADF0FC90E427EFF0EEA3F0EDA3F0ECA3F09005D5
:2013750035E4F5F01212D540028033C2A190E426E025E02480F582120E0B90E427E0FCA32A
:20139500E0FDA3E0FEA3E0FF8E038B82120E0B8D038B82120E0B8C82120E0BD2A1D3D00375
:2013B500D004D005D006D00722AF83E58290E42BF0EFA3F0C20CD2A1D2A2900535E4F5F0AE
:2013D500120EEFC297903415E4F5F0120EEFD297900535E4F5F0120EEF43AE4090585575F1
:2013F500F014E41212D540012290E4267403F090000075F03AE412135440012290E4267496
:2014150001F090000075F007E412135440012290E4267403F090000075F040E41213544037
:20143500012290E4267404F090000075F0FCE412135440012290E42BE0FEA3E0FF8E828F23
:2014550083E0FAA3E0FBA3E0FCA3E0FD90E426740DF08A828B838CF0ED12135440012274BF
:20147500032EFCE43FFD8C828D83E0FAA3E0FBA3E0FCA3E0FD90E426740EF08A828B838CE3
:20149500F0ED12135440012274062EFCE43FFD8C828D83E0FAA3E0FBA3E0FCA3E0FD90E4D1
:2014B50026740FF08A828B838CF0ED12135440012274092EFCE43FFD8C828D83E0FAA3E0DD
:2014D500FBA3E0FCA3E0FD90E4267410F08A828B838CF0ED121354400122200E0302160F38
:2014F500740C2EFCE43FFD8C828D83E0FAA3E0FBA3E0FCA3E0FD90E4267414F08A828B836C
:201515008CF0ED121354400122740F2EFCE43FFD8C828D83E0FAA3E0FBA3E0FCA3E0FD909F
:20153500E4267415F08A828B838CF0ED12135440012274122EFCE43FFD8C828D83E0FAA349
:20155500E0FBA3E0FCA3E0FD90E4267416F08A828B838CF0ED12135440012274152EFCE492
:201575003FFD8C828D83E0FAA3E0FBA3E0FCA3E0FD90E4267419F08A828B838CF0ED1213E6
:201595005440012274182EFCE43FFD8C828D83E0FAA3E0FBA3E0FCA3E0FD90E426741AF01C
:2015B5008A828B838CF0ED121354400122741B2EFEE43FFF8E828F83E0FCA3E0FDA3E0FEDB
:2015D500A3E0FF300D0A780079007A207B008008780079007A007B00E84204E94205EA422F
:2015F50006EB420790E426E4F08C828D838EF0EF12135450030216BFC32290E4267414F009
:2016150090000075F044E4121354400122300D0A7C017D007E687F0080087C007D007E8691
:201635007F0090E4267415F08C828D838EF0EF121354400122300D0A7C007D007E247F003B
:2016550080087C007D007E047F0090E4267416F08C828D838EF0EF12135440012290E426DE
:201675007419F090251475F008E412135440012290E426741AF090200075F0A0E4121354B8
:20169500400122300D0A7C1C7D007EA07F0080087C1C7D007E807F0090E426E4F08C828DB6
:2016B500838EF0EF121354400122900535E4F5F0120EEF120E71AC82AD83AEF0FF90E46A3D
:2016D500ECF0EDA3F0EEA3F0EFA3F0D20CD322C297903415E4F5F0120EEFC2A253AEBF2273
:2016F500300C4330A033120E71AC82AD83AEF0FF90E46AE0F8A3E0F9A3E0FAA3E0FBECC3EB
:2017150098FCED99FDEE9AFEEF9BFFC374FF9C74089D743D9EE49F50091216E4C20C7582A7
:0A1735000022758201227582002255
:0419090000000000DA
:20173F00AF82AE83ADF0FC90E431EFF0EEA3F0EDA3F0ECA3F090E435E4F0A3F0A3F0A3F055
:20175F0090E42DE0FCA3E0FDA3E0FEA3E0FF7B20C00390E431E0F8A3E0F9A3E0FAA3E0FB18
:20177F0090E439235401F0E828F8E933F9EA33FAEB33FB90E431E8F0E9A3F0EAA3F0EBA3E4
:20179F00F090E435E0F8A3E0F9A3E0FAA3E0FBE828F8E933F9EA33FAEB33FB90E435E8F074
:2017BF00E9A3F0EAA3F0EBA3F0D00390E439E0600890E435E043E001F090E435E0F523A3EA
:2017DF00E0F524A3E0F525A3E0F526C3E5239CE5249DE5259EE5269F401F90E435E523C384
:2017FF009CF0E5249DA3F0E5259EA3F0E5269FA3F090E431E043E001F01BEB600302176F03
:14181F0090E431E0FCA3E0FDA3E0FEA3E08C828D838EF022F2
:06004000E478FFF6D8FD94
:20001E00792EE94400601B7A019018DF784075A0E4E493F2A308B8000205A0D9F4DAF2753F
:02003E00A0FF21
:20183300AA83AB828BF090E43AE0A4F8A9F08AF0E0A429F98BF0A3E0A429F583888222224C
:20185300A882A983AAF0FB88F090E43CE0A4FCADF089F0E0A42DFDE435F0FE88F0A3E0A478
:201873002DFDE5F03EFEE433FF89F0E0A42EFEE5F03FFF88F0A3E0A42EFEE5F03FFF8AF070
:2018930090E43CE0A42EFEE5F03FFF8BF0E0A42FFF8AF0A3E0A42FFF89F0A3E0A42FFF8870
:0C18B300F0A3E0A42F8EF08D838C822225
:200046007800E84400600A790075A0E0E4F309D8FC7840E84404600C790590E000E4F0A3B1
:04006600D8FCD9FAEF
:0D0011007581261218DBE582600302000EE7
:1C18BF0020F71430F6148883A88220F507E6A88375830022E280F7E49322E02238
:0418DB0075820022F0
:00000001FF
